:1000000000800120D500000047010000E910000039
:1000100000000000000000000000000000000000E0
:10002000000000000000000000000000A1840000AB
:10003000000000000000000051040000C922000080
:10004000530100005B010000630100006B01000030
:10005000730100007B010000830100008B010000A0
:10006000930100009B010000A3010000AB01000010
:10007000B3010000BB010000C3010000CB01000080
:10008000D3010000DB010000E3010000EB010000F0
:10009000F3010000FB010000030200000B0200005E
:1000A000130200001B020000230200002B020000CC
:1000B000330200003B020000430200004B0200003C
:1000C000A0A600008080FF1FA80000002881FF1F5D
:1000D000D82A000010B572B600F0DEF90E4B0F4AB8
:1000E000934208D2186859681C000C349A6800F0D2
:1000F00019F82300F3E70A4A934207D218681C0054
:100100000834596800F017F82300F4E706F08CF97A
:1001100062B600F023FDFEE7C0000000CC00000046
:10012000D400000010B50023934203D210C810C1C0
:100130000433F9E710BD00238B4203D2002204C030
:100140000433F9E77047FEE7FEE7FEE7FEE7FEE768
:10015000FEE710B5FFF7FCFF10BD10B5FFF7F8FF85
:1001600010BD10B5FFF7F4FF10BD10B5FFF7F0FF9D
:1001700010BD10B5FFF7ECFF10BD10B5FFF7E8FF9D
:1001800010BD10B5FFF7E4FF10BD10B5FFF7E0FF9D
:1001900010BD10B504F0B6F910BD10B504F0C2F9E9
:1001A00010BD10B5FFF7D4FF10BD10B5FFF7D0FF9D
:1001B00010BD10B504F0F2FF10BD10B5FFF7C8FF79
:1001C00010BD10B5FFF7C4FF10BD10B5FFF7C0FF9D
:1001D00010BD10B5FFF7BCFF10BD10B5FFF7B8FF9D
:1001E00010BD10B5FFF7B4FF10BD10B5FFF7B0FF9D
:1001F00010BD10B5FFF7ACFF10BD10B5FFF7A8FF9D
:1002000010BD10B5FFF7A4FF10BD10B5FFF7A0FF9C
:1002100010BD10B5FFF79CFF10BD10B5FFF798FF9C
:1002200010BD10B5FFF794FF10BD10B5FFF790FF9C
:1002300010BD10B5FFF78CFF10BD10B5FFF788FF9C
:1002400010BD10B5FFF784FF10BD10B5FFF780FF9C
:1002500010BDFFFFFFFFFFFFFFFFFFFFFFFFFFFFDF
:10026000FFFFFFFFFFFFFFFFFFFFFFFFFFFFFFFF9E
:10027000FFFFFFFFFFFFFFFFFFFFFFFFFFFFFFFF8E
:10028000FFFFFFFFFFFFFFFFFFFFFFFFFFFFFFFF7E
:10029000FFFFFFFFFFFFFFFFFFFFFFFFFFFFFFFF6E
:1002A000FFFFFFFFFFFFFFFFFFFFFFFFFFFFFFFF5E
:1002B000FFFFFFFFFFFFFFFFFFFFFFFFFFFFFFFF4E
:1002C000FFFFFFFFFFFFFFFFFFFFFFFFFFFFFFFF3E
:1002D000FFFFFFFFFFFFFFFFFFFFFFFFFFFFFFFF2E
:1002E000FFFFFFFFFFFFFFFFFFFFFFFFFFFFFFFF1E
:1002F000FFFFFFFFFFFFFFFFFFFFFFFFFFFFFFFF0E
:10030000FFFFFFFFFFFFFFFFFFFFFFFFFFFFFFFFFD
:10031000FFFFFFFFFFFFFFFFFFFFFFFFFFFFFFFFED
:10032000FFFFFFFFFFFFFFFFFFFFFFFFFFFFFFFFDD
:10033000FFFFFFFFFFFFFFFFFFFFFFFFFFFFFFFFCD
:10034000FFFFFFFFFFFFFFFFFFFFFFFFFFFFFFFFBD
:10035000FFFFFFFFFFFFFFFFFFFFFFFFFFFFFFFFAD
:10036000FFFFFFFFFFFFFFFFFFFFFFFFFFFFFFFF9D
:10037000FFFFFFFFFFFFFFFFFFFFFFFFFFFFFFFF8D
:10038000FFFFFFFFFFFFFFFFFFFFFFFFFFFFFFFF7D
:10039000FFFFFFFFFFFFFFFFFFFFFFFFFFFFFFFF6D
:1003A000FFFFFFFFFFFFFFFFFFFFFFFFFFFFFFFF5D
:1003B000FFFFFFFFFFFFFFFFFFFFFFFFFFFFFFFF4D
:1003C000FFFFFFFFFFFFFFFFFFFFFFFFFFFFFFFF3D
:1003D000FFFFFFFFFFFFFFFFFFFFFFFFFFFFFFFF2D
:1003E000FFFFFFFFFFFFFFFFFFFFFFFFFFFFFFFF1D
:1003F000FFFFFFFFFFFFFFFFFFFFFFFFFFFFFFFF0D
:10040000FFFFFFFFFFFFFFFFFFFFFFFFFEFFFFFFFD
:100410000B4A13681868203080F30988022080F3A3
:100420001488BFF36F8F3FBCAE4608BC04BC62B6F5
:100430001847C046C046C046C046C046C046C04633
:1004400028AAFF1FC046C046FFFFFFFFFFFFFFFFB8
:10045000EFF309800E4B1A6820381060F0C0444654
:100460004D4656465F46F0C008B572B602F0E6FA51
:1004700062B60CBC116808681030F0C8A046A946E6
:10048000B246BB4680F309882038F0C81847C046FA
:1004900028AAFF1FC046C04680B500AF034A882384
:1004A0005B010021D150C046BD4680BD00700440B4
:1004B00080B500AF2C4B1B78002B38D02B4B1B7812
:1004C000002B34D02A4B1B781A002A4B9B5C01224C
:1004D0001340DBB228481A00042107F039FD244BF1
:1004E0001B781A00234B9B5C02221340DBB222488C
:1004F0001A00012107F02CFD1D4B1B781A001D4B23
:100500009B5C04221340DBB21B481A00022107F057
:100510001FFD174B1B781A00164B9B5C08221340DB
:10052000DBB215481A00032107F012FD18E0124B48
:1005300001220421180007F00BFD0F4B01220121BD
:10054000180007F005FD0C4B01220221180007F0EE
:10055000FFFC094B01220321180007F0F9FCC046FB
:10056000C046BD4680BDC0462581FF1F2681FF1FB6
:100570002481FF1F9C9D000080F00F4080B584B057
:1005800000AF786002F0A6F90300BB600F23FB18F0
:1005900000221A7000F034FF031E05D0174B1B78A1
:1005A000002B01D0012300E00023002B1AD0144BB4
:1005B0001B78002B07D0124B00221A700F23FB1858
:1005C00000221A7011E00F217B181B78032B05D82D
:1005D0007B181A787B1801321A7006E0084B01224A
:1005E0001A7002E0064B01221A70FFF761FF082320
:1005F000FB180121180001F0E1FFCBE7EAABFF1F78
:100600002681FF1F80B582B000AF0200FB1D1A706B
:10061000034BFA1D12781A70C046BD4602B080BD69
:100620002481FF1F80B582B000AF0200FB1D1A704D
:10063000034BFA1D12781A70C046BD4602B080BD49
:10064000EAABFF1F80B500AF024B00221A70C04614
:10065000BD4680BD2581FF1F80B500AF024B012242
:100660001A70C046BD4680BD2581FF1F80B582B08F
:1006700002AF074907480023019303230093002397
:10068000C82208F0DAFDFFF7DDFFC046BD4680BD99
:10069000A89D00007D05000080B582B000AF02007B
:1006A000FB1D1A70FB1D1B785BB21F221A40044B06
:1006B000012191400A001A60C046BD4602B080BDCB
:1006C00000E100E090B583B000AF02003960FB1D8F
:1006D0001A70FB1D1B787F2B32D92F4AFB1D1B780C
:1006E0005BB20F210B40083B9B0806339B00D318DD
:1006F00004331B68FA1D127852B203210A40D2005B
:10070000FF2191400A00D2431A4011003B689B012F
:10071000FF221A40FB1D1B785BB203200340DB0065
:100720009A401D48FB1D1B785BB20F242340083BF9
:100730009B080A4306339B00C31804331A6027E062
:10074000164AFB1D1B785BB29B08C0339B009B586D
:10075000FA1D127852B203210A40D200FF219140C3
:100760000A00D2431A4011003B689B01FF221A4045
:10077000FB1D1B785BB203200340DB009A40074857
:10078000FB1D1B785BB29B080A43C0339B001A50C9
:10079000C046BD4603B090BD00ED00E000E100E0C2
:1007A00080B500AF064B01221A70054BCE225A705D
:1007B000034B10229A7003231800BD4680BDC0462B
:1007C0002881FF1F80B500AF034B00221A70012360
:1007D0001800BD4680BDC0462881FF1F80B584B08B
:1007E00000AF0200FB1D1A70124A134B1348190088
:1007F00003F0A4FC114B00224421180003F0CAFDB1
:10080000FB1D1A780E490D48002303F005FE030076
:10081000FB600A4B180008F038FE084B180003F084
:1008200027FDFB685A1E9341DBB21800BD4604B099
:1008300080BDC046801A06008480FF1F006006400D
:100840002881FF1F80B584B000AF0200FB1D1A7025
:10085000FB1D1B78082B02D9FB1D08221A70124AB7
:10086000124B1348190003F069FC114B012244217B
:10087000180003F08FFDFB1D1A780E490C48002369
:1008800008F05AFE0300FB60094B180008F0FDFD5C
:10089000074B180003F0ECFCFB685A1E9341DBB2D7
:1008A0001800BD4604B080BD801A06008480FF1F7A
:1008B000006006402881FF1F90B583B000AF08207C
:1008C00007F060FB0F210820FFF7FCFE094B4021D9
:1008D000180008F0ACFDFC1DFFF762FF0300237059
:1008E000FB1D1B781800FFF779FFC046BD4603B01B
:1008F00090BDC0460060064090B583B000AFFC1DBF
:10090000FFF760FF03002370FB1D1B781800FFF743
:1009100065FF0220FFF796FF074B1B781B021AB2F8
:10092000054B5B781BB213431BB29AB2034B1A8080
:10093000C046BD4603B090BD2881FF1FE8ABFF1F36
:10094000B0B582B000AF154B1B881B051B0D7B603B
:10095000124B1B881B0B9BB23B60786805F08EFC2A
:1009600004000D0001223B689A401300180005F0B6
:1009700085FC0B4A0B4B05F015FA02000B0020001A
:10098000290005F00FFA02000B001000190005F015
:10099000A5FC031C181CBD4602B0B0BDE8ABFF1F90
:1009A0007B14AE47E17A843F80B582B000AF7860B7
:1009B000084A094BD358094A1A407B689906C02354
:1009C0001B050B4003491343034A8B50C046BD46E9
:1009D00002B080BD0070044004100000FFFFFFF370
:1009E00080B584B000AF786001F074FF0300FB6055
:1009F000054B2021180007F0DBFA0C23FB18C82157
:100A0000180001F0DBFDF3E780F00F40B0B592B0C5
:100A100000AF786105233B643023FB184C4A03CABE
:100A200003C312881A802823FB184A4A11681960E8
:100A300012791A714723FB1800221A7001F04AFF3D
:100A400003007B621823FB18180007F05CFB4723A8
:100A5000FB181A783023FB185200D35A3E4A9342AF
:100A60000CD11823FC183B00180007F04CFB3B008E
:100A7000200019000C231A0008F08AFEFFF73CFF43
:100A8000FFF75EFF031CFB63FC218905F86B05F093
:100A9000B7F8031E03D00020FFF7C4FD02E00120D9
:100AA000FFF7C0FD18257B191B780A21180004F0F8
:100AB00091FF0B00DAB228243B19DA707B191B78FE
:100AC0000A21180004F000FF0300DAB23B199A7003
:100AD0007B195B780A21180004F07CFF0B00DAB266
:100AE0003B195A707B195B780A21180004F0ECFE60
:100AF0000300DAB23B191A7047257B191B783A19A3
:100B0000D35C1800FFF77EFDFFF7A6FD2C003B1914
:100B10001B783A19591C11701A003023FB18520027
:100B2000D35A1A0024257B191100180001F046FD44
:100B3000FFF788FD7B19C821180001F03FFD3B1924
:100B40001B78042B83D93B1900221A707FE7C0461B
:100B5000B89D0000C49D00008813000080B584B0DB
:100B600002AF3B1D01221A703B1D00225A703B0050
:100B700000221A703B0000225A7004F03DFE04F07F
:100B8000CFFD0220FFF710FF08F0FDFD3B1D2448BC
:100B90001A00052103F00CFAFFF768FD3B1D204801
:100BA0001A00042103F004FA3B1D1D481A0001211C
:100BB00003F0FEF93B1D1A481A00022103F0F8F970
:100BC0003B1D17481A00032103F0F2F93B001448BB
:100BD0001A00112103F0ECF93B0011481A00122110
:100BE00003F0E6F90F480023019303230093002349
:100BF0006422002108F021FBAF235A000A48002399
:100C00000193032300930023002108F016FBFFF754
:100C100053FE07F0A7FA00F0B7FB01F087FDFEE7EF
:100C200080F00F40E10900000D0A000080B582B09D
:100C300000AF0200FB1D1A70FB1D1B785BB21F2268
:100C40001A40044B012191400A001A60C046BD467B
:100C500002B080BD00E100E090B583B000AF0200BB
:100C60003960FB1D1A70FB1D1B787F2B32D92F4A70
:100C7000FB1D1B785BB20F210B40083B9B08063322
:100C80009B00D31804331B68FA1D127852B203215B
:100C90000A40D200FF2191400A00D2431A401100BD
:100CA0003B689B01FF221A40FB1D1B785BB20320AF
:100CB0000340DB009A401D48FB1D1B785BB20F24EC
:100CC0002340083B9B080A4306339B00C3180433A8
:100CD0001A6027E0164AFB1D1B785BB29B08C033E5
:100CE0009B009B58FA1D127852B203210A40D20091
:100CF000FF2191400A00D2431A4011003B689B013A
:100D0000FF221A40FB1D1B785BB203200340DB006F
:100D10009A400748FB1D1B785BB29B080A43C0330F
:100D20009B001A50C046BD4603B090BD00ED00E0E8
:100D300000E100E080B500AF044B07221A70034BBE
:100D400020225A7002231800BD4680BD3081FF1F4B
:100D500080B500AF034B00221A7001231800BD4676
:100D600080BDC0463081FF1F80B584B000AF786081
:100D70000023FB60FB685A1CFA60394A0021D154F9
:100D80007B689B78180007F0A4F90300DAB2FB68CF
:100D9000591CF9607F210A40D1B2314AD1547B6895
:100DA0001B78180007F095F90300DAB2FB68591CAC
:100DB000F9607F210A40D1B2294AD1547B685B781F
:100DC000180007F086F90300DAB2FB68591CF960D5
:100DD0003F210A40D1B2224AD1547B689B79180046
:100DE00007F077F90300DAB2FB68591CF9600721B4
:100DF0000A40D1B21A4AD1547B68DB79180007F057
:100E000068F90300DAB2FB68591CF9603F210A4017
:100E1000D1B2134AD1547B681B7A180007F059F9F4
:100E20000300DAB2FB68591CF9601F210A40D1B2F5
:100E30000B4AD1547B685B890A4A94466344180084
:100E400007F047F90100FB685A1CFA60C9B2044A6E
:100E5000D154FB68DBB21800BD4604B080BDC0466B
:100E60003081FF1F30F8FFFFF0B5D6464F464646AB
:100E7000C0B588B006AF78602C4BDB781A0007232A
:100E80001340180007F032F90300DBB29846274BF5
:100E90001B791A003F231340180007F027F90300BD
:100EA000DBB29946214B5B791A001F2313401800CF
:100EB00007F01CF90300DBB29A461C4B9B79180023
:100EC00007F014F903009CB2184B9B781A003F23DB
:100ED0001340180007F00AF90300DDB2134B5B78EA
:100EE0001A007F231340180007F000F90300DEB258
:100EF0000E4B1B781A007F231340180007F0F6F8FA
:100F00000300DBB2786800220492039302960195F5
:100F1000009453464A46414607F03CF97868BD467E
:100F200002B01CBC90469946A246F0BD3081FF1F1E
:100F300080B584B000AF0200FB1D1A70124A134B3B
:100F40001348190003F0FAF8114B00226821180029
:100F500003F020FAFB1D1A780E490D48002303F018
:100F60005BFA0300FB600A4B180008F08EFA084B8E
:100F7000180003F07DF9FB685A1E9341DBB218009C
:100F8000BD4604B080BDC046801A06009080FF1F99
:100F9000006006403081FF1F80B584B000AF0200C2
:100FA000FB1D1A70124A134B1348190003F0C6F8C0
:100FB000114B01226821180003F0ECF9FB1D1A788F
:100FC0000E490D48002308F0B7FA0300FB600A4BF6
:100FD000180008F05AFA084B180003F049F9FB68AA
:100FE0005A1E9341DBB21800BD4604B080BDC04616
:100FF000801A06009080FF1F006006403081FF1FAE
:1010000080B584B000AF39601100FB1D021C1A705E
:10101000BB1D0A1C1A700023FB60BB1D1B78062B2E
:101020001BD8FB685A1CFA60FA1D12780832D1B23C
:10103000104AD154BB1D1B78FA689A420FDCFB683A
:10104000013B3A68D31819780A4AFB68D3180A1C7E
:101050001A70FB680133FB60ECE7002306E0FB68D5
:10106000DBB21800FFF764FF0300C0461800BD465E
:1010700004B080BD3081FF1F80B584B000AF3960FF
:101080001100FB1D021C1A70BB1D0A1C1A700023E4
:10109000FB60BB1D1B78072B1CD8FB1D1B7808337E
:1010A000DAB2104B1A700120FFF742FF0120FFF760
:1010B00073FFBB1D1B78FA689A420DDAFB683A6829
:1010C000D3180849FA688A1812781A70FB68013335
:1010D000FB60EEE7002300E001231800BD4604B0EA
:1010E00080BDC0463081FF1F04207146084202D0F7
:1010F000EFF3098001E0EFF3088081690A88054B6E
:101100009A4200D0FEE702318161202101607047E0
:10111000C0460000ABBE000090B583B000AF786061
:101120000C0010001900FB1C221C1A70BB1C021CB6
:101130001A707B1C0A1C1A707B68BA1C12785A70D1
:101140007B68FA1C12781A707B687A1C12789A7085
:101150001822BB181B88632B07D8BB18BA18128833
:10116000FA21C9008C4662441A8018217B181A881B
:10117000FA23DB009A4203D27B18FA22D2001A80AB
:1011800018217B181B88084A934202D97B18064A0B
:101190001A807A681823FB181B889380C0467868E9
:1011A000BD4603B090BDC0463308000090B583B083
:1011B00000AF02003960FB1D1A70FB1D1B787F2BEE
:1011C00032D92F4AFB1D1B785BB20F210B40083B25
:1011D0009B0806339B00D31804331B68FA1D127852
:1011E00052B203210A40D200FF2191400A00D243AB
:1011F0001A4011003B689B01FF221A40FB1D1B781F
:101200005BB203200340DB009A401D48FB1D1B78A6
:101210005BB20F242340083B9B080A4306339B0024
:10122000C31804331A6027E0164AFB1D1B785BB213
:101230009B08C0339B009B58FA1D127852B20321C1
:101240000A40D200FF2191400A00D2431A40110007
:101250003B689B01FF221A40FB1D1B785BB20320F9
:101260000340DB009A400748FB1D1B785BB29B08DC
:101270000A43C0339B001A50C046BD4603B090BD20
:1012800000ED00E000E100E080B582B000AF0200B8
:10129000FB1D1A701D4B1B7819001D4BFA1D12788F
:1012A0005A541A4B1B781A00194B9B5C0D3B5A423F
:1012B0005341DAB2154B1B781900154B5B5C0A3BA6
:1012C00059424B41DBB21343DBB2002B0CD00F4B26
:1012D0001B7801330E4A0021D1540D4B180000F049
:1012E00025FB00F083F80DE0084B1B78202B06D07F
:1012F000064B1B780133DAB2044B1A7002E0034B41
:1013000000221A70C046BD4602B080BDECABFF1F84
:101310003881FF1F80B584B000AF7860052002F0EF
:1013200089FB0200134B5A60124B134A1A60114A90
:101330001249134B180003F0EBFF0300DB0FDBB285
:10134000002B02D0002001F095F90823FB180D496D
:101350000B48012204F096F80300FB60FB68002BA9
:10136000F3D1BB68002BF0D0064B1B781800FFF7B9
:101370008BFFEAE79C80FF1F00400540A081FF1F14
:101380007881FF1FEBABFF1F80B582B002AF052154
:101390000C20FFF70BFFFA235A00074907480023E8
:1013A000019303230093002307F047FF00F0F2F9B5
:1013B000C046BD4680BDC046CC9D00001513000050
:1013C00080B584B000AF78607B68180008F00EFA32
:1013D0000300FB60FA687968034B180008F07FF996
:1013E000C046BD4604B080BD7881FF1F80B500AF08
:1013F000024B00221A70C046BD4680BDECABFF1FF9
:1014000080B500AF034B1B785A1E9341DBB2180026
:10141000BD4680BDEEABFF1F80B582B000AF7860E7
:101420007B681800FFF7CCFF034B1800FFF7C8FFDD
:10143000C046BD4602B080BDC89D000080B582B0E8
:1014400000AF0200FB1D1A700C4B1800FFF7B8FF2D
:10145000FB1D1A780A4913009B009B189B00CB18B0
:1014600004331B681800FFF7ABFF064B1800FFF7AB
:10147000A7FFC046BD4602B080BDC046249F000005
:10148000489E0000289F000090B587B000AF17234A
:10149000FB1800221A70434B1800FFF7BDFF1724FA
:1014A0003B191A78404913009B009B189B00CB18EE
:1014B00004331B68002B71D03C4B1800FFF780FFF2
:1014C0003B4B1800FFF77CFF3B191A783649130095
:1014D0009B009B189B00CB1804331B681800FFF778
:1014E0006FFF3B191A78304913009B009B189B0033
:1014F0005B5C002B47D03B191A782B4913009B00EB
:101500009B189B005B5C082B3DD02A4B1800FFF713
:1015100057FF20003B191A78234913009B009B18A2
:101520009B00CB180C331B68002B0CD03B181A788F
:101530001D4913009B009B189B00CB180C331B68A4
:101540001800FFF73DFF17203B181A7816491300C3
:101550009B009B189B00CB1810331B881C003B186A
:101560001A78114913009B009B189B00CB1812336B
:101570001B881149381D220005F04EF83B1D18004C
:10158000FFF74AFF03E00D4B1800FFF719FF172183
:101590007B181A787B1801321A7080E7C046BD4666
:1015A00007B090BD2C9F0000489E0000409F0000A7
:1015B000249F0000449F0000489F0000C89D000039
:1015C00080B584B000AF78600A00FB1C1A700F2051
:1015D0003B1800221A70FB1C1A78124913009B005A
:1015E0009B189B00CB1808331A783B1803321A70EB
:1015F0003B181B787A68D3181B783F2B01D1002346
:101600000BE00F23FB181B787A68D3181B783D2B4F
:1016100001D1012301E001235B421800BD4604B063
:1016200080BDC046489E0000F0B58DB000AF786028
:1016300039602F23FB1800221A702D23FB1800227B
:101640001A702E23FB18FF221A702F257B191A7887
:10165000354913009B009B189B00CB1804331B6873
:10166000002B55D07B191A782F4913009B009B182B
:101670009B00CB1808331A782D26BB1903321A7039
:101680002A4A0C243B191100180008F0A7F8284A30
:101690003B191100180008F094F87B191A782249B8
:1016A00013009B009B189B00CB1804331A683B194E
:1016B0001100180008F085F8BB191A7839197B68F1
:1016C000180008F09AF803005A425341DBB2002B8D
:1016D00017D02E26BC197B191A787B6811001800C8
:1016E000FFF76EFF03002370BB191B785BB2013359
:1016F00007D03B687A1912781A70BB191B785BB255
:101700000DE02F217B181A787B1801321A709CE7A4
:101710003B68FF221A702E23FB181B785BB218005F
:10172000BD460DB0F0BDC046489E0000409F000081
:10173000249F000080B582B000AF0200FB1D1A702C
:101740003B1D0A1C1A80FB1D1A78114913009B00CF
:101750009B189B00CB1810331B883A1D12889A42A5
:101760000FD3FB1D1A780A4913009B009B189B009E
:10177000CB1812331B883A1D12889A4201D80023D5
:1017800001E001235B421800BD4602B080BDC046A7
:10179000489E000080B500AF054B00221A70054B33
:1017A000012219000020FFF767FCC046BD4680BD3E
:1017B000EDABFF1FEEABFF1F80B586B000AF0200A0
:1017C0003960FB1D1A700C23FB18180006F09BFCF7
:1017D000FB1D1B780A2B41D89A00224BD3181B689B
:1017E0009F460C23FB189A793B681A7036E00C234D
:1017F000FB18DA793B681A7030E00C23FB181A7A70
:101800003B681A702AE00C23FB185B89DBB230338B
:10181000DAB23B681A7021E00C23FB189A783B6817
:101820001A701BE00C23FB181A783B681A7015E03D
:101830000C23FB185A783B681A700FE03B680022B3
:101840001A700BE0084B012219000020FFF714FC6E
:10185000054B1A783B681A7000E0C046C046BD468A
:1018600006B080BD549F0000EEABFF1F80B586B070
:1018700000AF0200FB1D1A70BB1D0A1C1A700C235E
:10188000FB18180006F03FFCFB1D1B780A2B40D804
:101890009A00244BD3181B689F460C23FB18BA1DD3
:1018A00012789A7135E00C23FB18BA1D1278DA71A0
:1018B0002FE00C23FB18BA1D12781A7229E0BB1D09
:1018C0001B789BB2FA22D200944663449AB20C234E
:1018D000FB185A811DE00C23FB18BA1D12789A7070
:1018E00017E00C23FB18BA1D12781A7011E00C23B4
:1018F000FB18BA1D12785A700BE00B4BBA1D127808
:101900001A70094B012219000020FFF779FB00E053
:10191000C0460C23FB18180006F00FFCC046BD465D
:1019200006B080BD809F0000EEABFF1FF0B59FB0FA
:1019300004AF78615B23FB1800221A705A23FB184E
:1019400000221A705823FB1800221A806723FB1804
:1019500001221A706723FB181B78002B00D13CE290
:10196000D24B1B78072BF5D89A00D14BD3181B68A4
:101970009F46CE4B01221A702EE25B23FA187B6938
:1019800011001800FFF750FE0300012B0AD000DD04
:1019900021E25A1C0AD0002B00D01CE2C34B0222C9
:1019A0001A7007E0C14B03221A7003E0BF4B0622F6
:1019B0001A70C0460FE25B23FB181B781900BD4A62
:1019C0000B009B005B189B009B5C082B0DD14C23EC
:1019D000FC183B00180006F096FB3B0020001900A5
:1019E0000C231A0007F0D4FE2DE05B243B191B7872
:1019F0001900B04A0B009B005B189B009B5C5A25AA
:101A00007A1911001800FFF7D7FE3B191B7819004F
:101A1000A84A0B009B005B189B009B5C042B0BD11E
:101A20007B191B789BB2FA22D200944663449AB287
:101A30005823FB181A8006E05A23FB181B789AB229
:101A40005823FB181A80994B05221A70C4E15B24B5
:101A50003B191B781900974A0B009B005B189B00F1
:101A60009B5C082B2DD058257A197B691100180032
:101A700006F0B4FC03005A425341DBB2002B1CD0E9
:101A80003B191B7819008B4A0B009B005B189B00CD
:101A90009A5C7B191B8819001000FFF74BFE0300AE
:101AA0005A425341DBB2002B03D0804B04221A7000
:101AB00092E17E4B07221A708EE17C4B07221A704E
:101AC0008AE17A4B04221A7086E15B23FB181B78AB
:101AD0001900784A0B009B005B189B009B5C082B4D
:101AE00000D0AAE000233B630023FB620023BB621B
:101AF00000237B6200233B620023FB612C23FC1844
:101B00003023FA186C4978691C23FB1803932023AF
:101B1000FB1802932423FB1801932823FB1800933E
:101B2000230004F099FD0300FB65FB6D062B03D039
:101B30005E4B07221A704FE13B6B9BB219000220EB
:101B4000FFF7F8FD03005A1E9341DBB2002B03D0D0
:101B5000564B07221A703FE1FB6A9BB21900032023
:101B6000FFF7E8FD03005A1E9341DBB2002B03D0C0
:101B70004E4B07221A702FE1BB6A9BB2190004205A
:101B8000FFF7D8FD03005A1E9341DBB2002B03D0B0
:101B9000464B07221A701FE17B6A9BB2190007208F
:101BA000FFF7C8FD03005A1E9341DBB2002B03D0A0
:101BB0003E4B07221A700FE13B6A9BB219000620C8
:101BC000FFF7B8FD03005A1E9341DBB2002B03D090
:101BD000364B07221A70FFE0FB699BB21900052003
:101BE000FFF7A8FD03005A1E9341DBB2002B03D080
:101BF0002E4B07221A70EFE03B6BDAB24C217B18B8
:101C0000DA71FB6ADAB27B181A72BB6A9AB27B1875
:101C10005A817B6ADAB27B185A703B6ADAB27B1857
:101C20001A70FB69DAB27B189A707B18180006F0FC
:101C300084FA1E4B05221A70CEE05B203B181B78FD
:101C400019001C4A0B009B005B189B009B5C042B3B
:101C500016D13B181B781900164A0B009B005B1825
:101C60009B009A5C5823FB181B88DBB23033DBB235
:101C700019001000FFF7FAFD0C4B05221A70ABE0BB
:101C80005B23FB181B7819000A4A0B009B005B18AA
:101C90009B009A5C5823FB181B88DBB219001000CC
:101CA000FFF7E4FD014B05221A7095E0EDABFF1F35
:101CB00000A00000489E0000AC9F0000494B1800A7
:101CC000FFF77EFB484B1800FFF77AFB474B1800E5
:101CD000FFF776FB464B1800FFF772FB454B1800E9
:101CE000FFF76EFB444B1800FFF796FB434B0722B0
:101CF0001A7071E05B243B191B781800FFF79EFBFC
:101D00003B191B7819003E4A0B009B005B189B0097
:101D10009B5C082B26D14C257B19DB791A007B199B
:101D20001B7A1C007B195B8936493426B81900934D
:101D3000230004F071FC03003B663B6EBA19D01817
:101D40007B195B781A007B191B781C007B199B7828
:101D50002D490093230004F05FFCBB191800FFF726
:101D60005BFB1CE05B23FB181B781900244A0B006B
:101D70009B005B189B009B5C002B0ED05823FB182C
:101D80001B881A00214934243B19180004F044FC34
:101D90003B191800FFF740FB01E0FFF775FB1C4BF8
:101DA0001800FFF739FB6723FB1800221A70134B4A
:101DB00000221A70FFF71AFB0EE0164B1800FFF70F
:101DC0002BFB6723FB1800221A700C4B00221A70A1
:101DD000FFF70CFB00E0C046BCE5C046BD461BB0AB
:101DE000F0BDC046E09D0000C89F0000409F00007D
:101DF000249F0000D89D0000CC9F0000EDABFF1F8A
:101E0000489E0000D09F0000E09F0000F09F00006F
:101E1000F49F0000F89F000080B586B000AF7860A6
:101E20000023FB6000F0BEFC494B1B68002B01D176
:101E300000F0E0F8474B1B687A68134000D079E067
:101E40007B68002B12D008227B689B187B607B6824
:101E5000072213400AD07B680722934308337B6034
:101E60007B680722134001D072B6FEE77B68002B27
:101E700060D0394B1B687A689A425BD8374B3B611C
:101E8000364B1B687B6104E07B693B617B691B68A7
:101E90007B617B695B687A689A4203D97B691B68BE
:101EA000002BF1D12A4B1B687A699A4242D03B69D8
:101EB0001B6808229B18FB607B691A683B691A60E3
:101EC0007B695A687B68D21A08235B009A4216D94C
:101ED0007A697B68D318BB60BB680722134001D0C6
:101EE00072B6FEE77B695A687B68D21ABB685A6093
:101EF0007B697A685A60BB68180000F0DBF8164B03
:101F00001A687B695B68D21A134B1A60124B1A6805
:101F1000134B1B689A4203D20F4B1A68104B1A607E
:101F20007B695A680B4B1B681A437B695A607B6953
:101F300000221A6000F042FCFB680722134001D027
:101F400072B6FEE7FB681800BD4606B080BDC0460D
:101F5000D8A9FF1FE4A9FF1FDCA9FF1FD0A9FF1FFD
:101F6000E0A9FF1F80B584B000AF78607B68FB609C
:101F70007B68002B35D008235B42FA68D318FB60DE
:101F8000FB68BB60BB685A68184B1B68134001D1E3
:101F900072B6FEE7BB681B68002B01D072B6FEE785
:101FA000BB685A68114B1B6813401AD0BB681B688A
:101FB000002B16D1BB685A680C4B1B68DB431A40D8
:101FC000BB685A6000F0EEFBBB685A68084B1B68A0
:101FD000D218074B1A60BB68180000F06BF800F0CD
:101FE000EDFBC046BD4604B080BDC046E4A9FF1F5E
:101FF000DCA9FF1F80B584B000AFA0239B01BB60AC
:10200000264BFB60FB68072213400CD0FB680733AC
:10201000FB60FB6807229343FB60BA68FB68D21A37
:102020001E4BD318BB60FB687B601D4B7A681A603F
:102030001B4B00225A607B68BA68D318FB600822E9
:10204000FB689B1AFB60FB6807229343FB60FA68FE
:10205000144B1A60134B1B6800225A60114B1B680B
:1020600000221A607B683B603B68FA68D21A3B68C2
:102070005A600C4B1A683B681A603B685A680A4BF6
:102080001A603B685A68094B1A60094B8022120695
:102090001A60C046BD4604B080BDC046D081FF1F57
:1020A000D0A9FF1FD8A9FF1FE0A9FF1FDCA9FF1FB0
:1020B000E4A9FF1F80B584B000AF7860274BFB60B8
:1020C00002E0FB681B68FB60FB681B687A689A4249
:1020D000F7D8FB68BB60FB685B68BA68D3187A689E
:1020E0009A4208D1FB685A687B685B68D218FB6823
:1020F0005A60FB687B607B68BB607B685B68BA6822
:10210000D218FB681B689A4218D1FB681A68144BF6
:102110001B689A420DD07B685A68FB681B685B6835
:10212000D2187B685A60FB681B681A687B681A6063
:1021300008E00B4B1A687B681A6003E0FB681A68BA
:102140007B681A60FA687B689A4202D0FB687A68FA
:102150001A60C046BD4604B080BDC046D0A9FF1F6E
:10216000D8A9FF1F80B500AF0A4B1B68FA22910067
:10217000180003F0A9FB03001A00074B013A1A608C
:10218000064B00221A60064B07221A60C046BD4665
:1021900080BDC0468080FF1F14E000E018E000E032
:1021A00010E000E080B584B000AFF860B9607A60FC
:1021B000FB68043BFB60FB68802252041A60FB68EA
:1021C000043BFB60BA68FB681A60FB68043BFB6079
:1021D000084AFB681A60FB68143BFB607A68FB687E
:1021E0001A60FB68203BFB60FB681800BD4604B02A
:1021F00080BDC046F921000080B500AF034B1B68CD
:10220000013301D072B6FEE772B6FEE7B480FF1F5D
:1022100080B500AF0D4B1A680C4BFF2109040A432F
:102220001A600A4B1A68094BFF2109060A431A6013
:10223000FFF798FF064B00221A60FEF7E9F8FFF758
:10224000DBFF00231800BD4680BDC04620ED00E046
:10225000B480FF1F80B500AF054B802252051A6085
:10226000BFF34F8FBFF36F8FC046BD4680BDC046E2
:1022700004ED00E080B500AF72B6064B1B685A1C37
:10228000044B1A60BFF34F8FBFF36F8FC046BD463C
:1022900080BDC046B480FF1F80B500AF094B1B68EE
:1022A000002B01D172B6FEE7064B1B685A1E054B88
:1022B0001A60044B1B68002B00D162B6C046BD46B5
:1022C00080BDC046B480FF1F80B582B000AF06F06D
:1022D000ECF803007B6000F00BFB031E03D0064B01
:1022E000802252051A607B68180006F0E4F8C046A8
:1022F000BD4602B080BDC04604ED00E080B586B0AA
:1023000000AFF860B9607A607B68BA68F968054820
:1023100001F020FA03007B617B691800BD4606B01E
:1023200080BDC046C787000080B584B000AF78602C
:1023300039600023FB6015E00E4BFA68D200D358D9
:10234000002B0CD10B4BFA68D2003968D150094AE6
:10235000FB68DB00D31804337A681A6006E0FB6878
:102360000133FB60FB68072BE6D9C046C046BD467B
:1023700004B080BDE8A9FF1F80B584B000AF7860CD
:102380000023FB6018E0104AFB68DB00D31804331D
:102390001B687A689A420CD10B4BFA68D200002174
:1023A000D150094AFB68DB00D318043300221A60BD
:1023B00006E0FB680133FB60FB68072BE3D9C046EE
:1023C000C046BD4604B080BDE8A9FF1F80B586B0F9
:1023D00000AFF860B9607A603B60BB6A186B7B68DD
:1023E0009B001A00A52107F0DCF9BB6A1A6B7B6819
:1023F0003D498C4663449B00D3183B613B690722EF
:1024000093433B613B690722134001D072B6FEE75C
:1024100000237B6113E0BA687B69D3181878BA6A25
:1024200034217B69D3185B18021C1A70BA687B6967
:10243000D3181B78002B06D07B6901337B617B6945
:10244000132BE8D900E0C046BB6A4722002199540B
:102450003B6A042B01D904233B62BB6A3A6ADA6205
:10246000BB6A3A6A1A65BB6A00225A65BB6A0433C2
:10247000180006F0F4F9BB6A1833180006F0EFF9FB
:10248000BB6ABA6A1A613B6A0522D21ABB6A9A61B0
:10249000BB6ABA6A5A6200237B6108E0BB6A7A6948
:1024A000163292000021D1507B6901337B617B6938
:1024B000042BF3D9BB6A0022DA66BB6A70220021C2
:1024C00099543A68F9683B691800FFF76BFE0200FF
:1024D000BB6A1A607B6A002B02D07B6ABA6A1A60F8
:1024E000C046BD4606B080BDFFFFFF3F80B582B04D
:1024F00000AF7860FFF7BEFE2A4B1B685A1C294BC1
:102500001A60294B1B68002B09D1274B7A681A6087
:10251000244B1B68012B10D100F08AFC0DE0234BEB
:102520001B68002B09D1204B1B68DA6A7B68DB6AC9
:102530009A4202D81C4B7A681A601D4B1B685A1CC1
:102540001B4B1A601A4B1A687B689A647B68DA6ABC
:10255000184B1B689A4203D97B68DA6A154B1A60DC
:102560007B68DA6A13009B009B189B00124A9A183A
:102570007B6804331900100006F07CF9FFF78CFE2D
:102580000A4B1B68002B08D0074B1B68DA6A7B6874
:10259000DB6A9A4201D2FFF75DFEC046BD4602B03B
:1025A00080BDC04600ABFF1F28AAFF1F0CABFF1F5A
:1025B0001CABFF1F08ABFF1F2CAAFF1F80B586B006
:1025C00000AF7860396000237B617B68002B01D10C
:1025D00072B6FEE73B68002B01D172B6FEE7234BD3
:1025E0001B68002B01D072B6FEE700F0DBF8204B31
:1025F0001B683B617B681B683A68D318FB607B688B
:102600001B683A699A420BD27B681B68FA689A4247
:1026100011D2FA683B699A420DD901237B610AE025
:102620007B681B68FA689A4203D3FA683B699A424E
:1026300001D901237B617B68FA681A607B69002BF2
:1026400006D0FA683B69D31A0021180000F092FD09
:1026500000F0B4F80300BB60BB68002B01D1FFF7AA
:10266000F9FDC046BD4606B080BDC04628ABFF1F81
:1026700004ABFF1F80B584B000AF7860FFF7FAFDB0
:102680007B68002B02D1244B1B6800E07B68FB6059
:10269000FB680433180006F045F9FB689B6A002BC1
:1026A00004D0FB681833180006F03CF9FB681A1DCB
:1026B0001A4B1100180006F0DDF8FFF7EDFD184B7E
:1026C0001B68002B05D0FFF7D5FD00F031FCFFF7AC
:1026D000E3FD114B1B68FA689A4218D1104B1B6836
:1026E000002B08D00F4B1B68002B01D072B6FEE701
:1026F000FFF7B0FD0BE0094B1A680B4B1B689A42C1
:1027000003D1054B00221A6001E000F097F9C046A2
:10271000BD4604B080BDC04628AAFF1FECAAFF1F1B
:102720000CABFF1F28ABFF1F00ABFF1F80B584B0B1
:1027300002AF16491648174B01930023009300235C
:10274000C82206F07AFD03007B607B68012B03D171
:1027500000F064FD03007B607B68012B0DD172B635
:102760000D4B012252421A600C4B01221A600C4B95
:1027700000221A60FFF74CFD04E07B68013301D1B1
:1027800072B6FEE7C046BD4602B080BD20A0000084
:10279000112E000024ABFF1F20ABFF1F0CABFF1F4F
:1027A00004ABFF1F80B500AF034B1B685A1C024BE4
:1027B0001A60C046BD4680BD28ABFF1F80B584B0FF
:1027C00000AF0023FB600023BB603A4B1B68002B6B
:1027D00001D172B6FEE7FFF74DFD364B1B685A1E5E
:1027E000344B1A60334B1B68002B5BD1324B1B6898
:1027F000002B57D02FE0314BDB68DB68FB60FB68B8
:102800001833180006F08EF8FB680433180006F041
:1028100089F8FB68DA6A2A4B1B689A4203D9FB687D
:10282000DA6A274B1A60FB68DA6A13009B009B1870
:102830009B00244A9A18FB6804331900100006F024
:1028400019F8FB68DA6A204B1B68DB6A9A4202D3EC
:102850001E4B01221A60194B1B68002BCBD1FB6861
:10286000002B01D000F064FB194B1B687B607B6878
:10287000002B0FD000F03CF8031E02D0134B0122B6
:102880001A607B68013B7B607B68002BF2D1104BA8
:1028900000221A600D4B1B68002B03D00123BB6084
:1028A000FFF7D8FCFFF7F8FCBB681800BD4604B082
:1028B00080BDC04628ABFF1F00ABFF1FC0AAFF1F93
:1028C00008ABFF1F2CAAFF1F28AAFF1F14ABFF1F76
:1028D00010ABFF1F80B582B000AF044B1B687B605C
:1028E0007B681800BD4602B080BDC04604ABFF1F28
:1028F00080B586B000AF00237B61454B1B68002B81
:1029000000D075E0434B1B6801333B61414B3A6992
:102910001A603B69002B17D13F4B1B681B68002BCB
:1029200001D072B6FEE73C4B1B68FB603B4B1A685C
:10293000394B1A60394BFA681A60394B1B685A1CBC
:10294000374B1A6000F0F4FA364B1B683A699A422A
:1029500053D3314B1B681B68002B01D1012300E0CE
:102960000023002B04D02F4B012252421A6044E076
:10297000294B1B68DB68DB68BB60BB685B687B60FE
:102980003A697B689A4203D2264B7A681A6034E02F
:10299000BB680433180005F0C5FFBB689B6A002BB9
:1029A00004D0BB681833180005F0BCFFBB68DA6AB6
:1029B0001D4B1B689A4203D9BB68DA6A1A4B1A602E
:1029C000BB68DA6A13009B009B189B00174A9A1891
:1029D000BB6804331900100005F04CFFBB68DA6ACD
:1029E000134B1B68DB6A9A42B3D301237B61B0E7C8
:1029F000104B1B685A1C0F4B1A600F4B1B68002BA7
:102A000001D001237B617B691800BD4606B080BD03
:102A100028ABFF1F04ABFF1FB8AAFF1FBCAAFF1FF4
:102A200018ABFF1F20ABFF1F08ABFF1F2CAAFF1F17
:102A300028AAFF1F10ABFF1F14ABFF1F80B582B089
:102A400000AF224B1B68002B03D0214B01221A60E0
:102A500037E01F4B00221A601E4B1B687B6007E0AB
:102A60007B68002B01D172B6FEE77B68013B7B607F
:102A700019497A6813009B009B189B005B58002B38
:102A8000EED07A6813009B009B189B00124A9B189B
:102A90003B603B685B685A683B685A603B685A68B1
:102AA0003B6808339A4204D13B685B685A683B68CC
:102AB0005A603B685B68DA68084B1A60054B7A68B5
:102AC0001A60C046BD4602B080BDC04628ABFF1F9D
:102AD00014ABFF1F08ABFF1F2CAAFF1F28AAFF1F64
:102AE00080B582B000AF786039607B68002B01D17F
:102AF00072B6FEE7084B1B6818331A007B6811009A
:102B0000180005F0D9FE3B680121180000F032FBE7
:102B1000C046BD4602B080BD28AAFF1F80B584B064
:102B200000AFF860B9607A60FB68002B01D172B623
:102B3000FEE70F4B1B68002B01D172B6FEE70D4B71
:102B40001B68BA68802109060A439A61094B1B6811
:102B500018331A00FB681100180005F08BFE7B6823
:102B60000121180000F006FBC046BD4604B080BD40
:102B700028ABFF1F28AAFF1F80B584B000AFF86004
:102B8000B9607A60FB68002B01D172B6FEE70C4B8E
:102B90001B6818331A00FB681100180005F06AFE64
:102BA0007B68002B02D001235B42BB607A68BB6864
:102BB0001100180000F0DEFAC046BD4604B080BD2A
:102BC00028AAFF1F80B584B000AF78607B68DB68FF
:102BD000DB68BB60BB68002B01D172B6FEE7BB6847
:102BE0001833180005F09EFE1E4B1B68002B1DD1EC
:102BF000BB680433180005F095FEBB68DA6A1A4B0F
:102C00001B689A4203D9BB68DA6A174B1A60BB6823
:102C1000DA6A13009B009B189B00144A9A18BB6841
:102C200004331900100005F025FE07E0BB681833D7
:102C30001A000F4B1100180005F01CFEBB68DA6A81
:102C40000C4B1B68DB6A9A4205D90123FB600A4BD7
:102C500001221A6001E00023FB60FB681800BD46FA
:102C600004B080BD28ABFF1F08ABFF1F2CAAFF1FBD
:102C7000C0AAFF1F28AAFF1F14ABFF1F80B584B096
:102C800000AF78603960244B1B68002B01D172B60D
:102C9000FEE73B68802212061A437B681A607B6855
:102CA000DB68BB60BB68002B01D172B6FEE77B68B6
:102CB000180005F037FEBB680433180005F032FE3B
:102CC000BB68DA6A154B1B689A4203D9BB68DA6A9B
:102CD000124B1A60BB68DA6A13009B009B189B00BA
:102CE0000F4A9A18BB6804331900100005F0C2FDA2
:102CF000BB68DA6A0B4B1B68DB6A9A4205D9012371
:102D0000FB60094B01221A6001E00023FB60FB68B5
:102D10001800BD4604B080BD28ABFF1F08ABFF1FE5
:102D20002CAAFF1F28AAFF1F14ABFF1F80B582B07B
:102D300000AF78607B68002B01D172B6FEE7064BCE
:102D40001A687B681A60054B1A687B685A60C0462F
:102D5000BD4602B080BDC04618ABFF1F04ABFF1FCD
:102D600080B584B000AF786039607B68002B01D1FA
:102D700072B6FEE73B68002B01D172B6FEE7FFF7A3
:102D800079FA1C4B1B68BB603B681B68013302D19E
:102D90000023FB6027E07B681A68174B1B689A4288
:102DA00007D07B685B68BA689A4202D30123FB6054
:102DB00019E07B685B68BA68D21A3B681B689A4264
:102DC0000FD23B681A687B685968BB68CB1AD21867
:102DD0003B681A607B681800FFF7A8FF0023FB60C0
:102DE00001E00123FB60FFF757FAFB681800BD46BE
:102DF00004B080BD04ABFF1F18ABFF1F80B500AF50
:102E0000024B01221A60C046BD4680BD14ABFF1FB5
:102E100080B582B000AF786000F04EF8034B1B68BD
:102E2000012BF9D9FFF716FAF6E7C0462CAAFF1FC7
:102E300080B582B000AF00237B600CE07A6813009D
:102E40009B009B189B00144A9B18180005F0E9FC96
:102E50007B6801337B607B68042BEFD90F4B180034
:102E600005F0DFFC0E4B180005F0DBFC0D4B1800E5
:102E700005F0D7FC0C4B180005F0D3FC0B4B1800E9
:102E800005F0CFFC0A4B054A1A600A4B044A1A6047
:102E9000C046BD4602B080BD2CAAFF1F90AAFF1FEE
:102EA000A4AAFF1FC0AAFF1FD4AAFF1FECAAFF1FDE
:102EB000B8AAFF1FBCAAFF1F80B582B000AF27E0F1
:102EC000FFF770FC174B1B685A425341DBB27B6023
:102ED000FFF774FC7B68002B1AD1FFF7CBF9114B7D
:102EE000DB68DB683B603B680433180005F01AFDC3
:102EF0000D4B1B685A1E0C4B1A600C4B1B685A1E5C
:102F00000A4B1A60FFF7C8F93B68180006F0DDF9B4
:102F1000064B1B68002BD3D1C046C046BD4602B04D
:102F200080BDC046D4AAFF1F00ABFF1FE8AAFF1F49
:102F300080B582B000AF0E4B1B681B68002B01D11F
:102F4000012300E00023002B04D00A4B012252424F
:102F50001A6008E0064B1B68DB68DB687B607B68F7
:102F60005A68044B1A60C046BD4602B080BDC046D8
:102F7000B8AAFF1F20ABFF1F80B582B000AF0A4B7D
:102F80001B68002B02D101237B6008E0074B1B6804
:102F9000002B02D102237B6001E000237B607B6871
:102FA0001800BD4602B080BD0CABFF1F28ABFF1F51
:102FB00080B584B000AF78607B68FB607B68002BD5
:102FC0004AD0FB68DA6A264B1B68DB6A9A4243D216
:102FD000FB689B69002B06DB214B1B68DB6A052223
:102FE000D21AFB689A61FB685969FB68DA6A1300B8
:102FF0009B009B189B001B4A9B18994201D10123FF
:1030000000E00023002B22D0FB680433180005F0F9
:1030100089FC134B1B68DA6AFB68DA62FB68DA6AC0
:10302000114B1B689A4203D9FB68DA6A0E4B1A608F
:10303000FB68DA6A13009B009B189B00094A9A18E8
:10304000FB6804331900100005F014FC04E0044B85
:103050001B68DA6AFB68DA62C046BD4604B080BD10
:1030600028AAFF1F2CAAFF1F08ABFF1F80B584B042
:1030700000AF78607B68BB600023FB607B68002B3F
:1030800044D0254B1B68BA689A4201D072B6FEE75D
:10309000BB685B6D002B01D172B6FEE7BB685B6D50
:1030A0005A1EBB685A65BB68DA6ABB681B6D9A42D8
:1030B0002CD0BB685B6D002B28D1BB680433180093
:1030C00005F030FCBB681A6DBB68DA62BB68DB6A6E
:1030D0000522D21ABB689A61BB68DA6A0F4B1B687B
:1030E0009A4203D9BB68DA6A0C4B1A60BB68DA6A89
:1030F00013009B009B189B00094A9A18BB68043375
:103100001900100005F0B6FB0123FB60FB681800F6
:10311000BD4604B080BDC04628AAFF1F08ABFF1FF4
:103120002CAAFF1F80B582B000AF084B1B689B69BB
:103130007B60064B1B68DA6A044B1B6805218A1A00
:103140009A617B681800BD4602B080BD28AAFF1FA7
:1031500080B500AF064B1B68002B04D0044B1B68E6
:103160005A6D01325A65024B1B681800BD4680BD7E
:1031700028AAFF1F80B584B000AF78603960214B6A
:103180001B68FB60204B1B680433180005F0CAFB6A
:103190007B6801330BD13B68002B08D01A4B1B68AE
:1031A0001A1D1A4B1100180005F064FB26E0FA689E
:1031B0007B68D318BB60144B1B68BA685A60BA6846
:1031C000FB689A4209D2124B1A680F4B1B680433F2
:1031D0001900100005F070FB10E00E4B1A680A4B46
:1031E0001B6804331900100005F066FB0A4B1B68CE
:1031F000BA689A4202D2084BBA681A60C046BD4605
:1032000004B080BD04ABFF1F28AAFF1FECAAFF1F5C
:10321000BCAAFF1FB8AAFF1F20ABFF1F80B584B058
:1032200002AF00237B6000F05BFA0D4B1B68002BA4
:103230000CD0C8235A000B490B480C4B01930223B6
:103240000093002305F0F9FF03007B607B68002BEF
:1032500001D172B6FEE77B681800BD4602B080BDA2
:103260005CABFF1F28A00000ED92000060ABFF1FC9
:1032700090B58BB000AFF860B9607A603B60002316
:103280007B62FB68002B01D172B6FEE71C4B1B680A
:10329000002B30D014243B19BA681A603B197A68A5
:1032A0005A603B19FA689A60BB68052B19DCFFF776
:1032B00063FE0300022B09D1114B1868BA6B391950
:1032C000002305F03AFC03007B6214E00C4B186805
:1032D0001423F9180023002205F02FFC03007B6261
:1032E00009E0074B18683A681423F918002305F021
:1032F000E8FC03007B627B6A1800BD460BB090BD02
:103300005CABFF1F80B586B002AF78603960184BA8
:103310001B68DB68DB68FB60FB680433180005F0A2
:1033200001FBFB68DB69012B19D1FB689A697B689B
:10333000D1187B683A68F86800F0A2F8031E0ED036
:103340007A68F8680023009300230021FFF790FFBC
:103350000300BB60BB68002B01D172B6FEE7FB68BF
:103360005B6AFA6810009847C046BD4604B080BD4D
:1033700054ABFF1F80B584B000AF78603960FFF7B1
:1033800011FA0823FB18180000F05AF80300FB603C
:10339000BB68002B29D13B68002B0CD17A68FB68F5
:1033A0009A4208D8FFF70AFAFA687B6811001800F9
:1033B000FFF7A8FF1BE03B68002B06D00E4B1B68F5
:1033C0001B685A425341DBB23B600C4B18687A6869
:1033D000FB68D31A3A68190005F0FCFEFFF7EEF916
:1033E000031E04D1FEF736FF01E0FFF7E7F9C04600
:1033F000BD4604B080BDC04658ABFF1F5CABFF1F8D
:1034000080B584B000AF78600C4B1B681B685A42D3
:103410005341DBB21A007B681A607B681B68002B83
:1034200005D1064B1B68DB681B68FB6001E00023CD
:10343000FB60FB681800BD4604B080BD54ABFF1FA5
:1034400080B584B000AF7860FFF744FA0300FB60FA
:103450000A4B1B68FA689A4205D200F0E7F87B68CD
:1034600001221A6002E07B6800221A60034BFA68AE
:103470001A60FB681800BD4604B080BD64ABFF1F36
:1034800080B586B000AFF860B9607A603B60002319
:103490007B61FB68BA685A60FB68FA681A61BA68AF
:1034A0007B689A4212D87A683B68D21AFB689B699B
:1034B0009A4202D301237B611BE0104B1A68FB6820
:1034C00004331900100005F0F7F912E07A683B6840
:1034D0009A4206D2BA683B689A4202D301237B61C2
:1034E00007E0074B1A68FB6804331900100005F069
:1034F000E3F97B691800BD4606B080BD58ABFF1FDD
:1035000054ABFF1F90B58DB002AF7AE00822BB1814
:103510001B68002B0FDABB1804337B627B6A002B1D
:1035200001D172B6FEE77B6A1A687B6A58687B6ACB
:103530009B68190090470822BB181B68002B5FDBB3
:10354000BB189B683B623B6A5B69002B04D03B6AFB
:103550000433180005F0E6F93B1D1800FFF770FF73
:103560000300FB610823FB181B68092B49D89A004C
:103570002C4BD3181B689F4608243B195A683B6A9A
:103580009B69D1183B195B68FA69386AFFF778FFC5
:10359000031E36D03B6A5B6A3A6A100098473B6A62
:1035A000DB69012B2DD13B195A683B6A9B69D21804
:1035B000386A0023009300230021FFF759FE03001F
:1035C000BB61BB69002B1CD172B6FEE70823FB1858
:1035D0005A683B6A9A613B6A9B69002B01D172B6BB
:1035E000FEE73B6A9A69FB69D118FB69FA69386A98
:1035F000FFF746FF05E03B6A1800FEF7B3FC00E06A
:10360000C046094B18680823F9180023002205F06A
:10361000C9FB031E00D079E7C046C046BD460BB0CB
:1036200090BDC04630A000005CABFF1F80B588B0E5
:1036300002AF3EE0284B1B68DB681B683B61264BF2
:103640001B68DB68DB68FB60FB680433180005F06F
:1036500069F9FB685B6AFA6810009847FB68DB69E8
:10366000012B26D1FB689B693A69D318BB60BA6805
:103670003B699A420ED9FB68BA685A60FB68FA68DF
:103680001A61154B1A68FB6804331900100005F025
:1036900013F90EE03A69F868002300930023002133
:1036A000FFF7E6FD03007B607B68002B01D172B65B
:1036B000FEE7094B1B681B68002BBBD1064B1B6840
:1036C0007B61064B1A68044B1A60044B7A691A60D6
:1036D000C046BD4606B080BD54ABFF1F58ABFF1FB0
:1036E00080B500AFFEF7C6FD144B1B68002B20D140
:1036F000134B180005F095F8124B180005F091F8DF
:10370000114B0F4A1A60114B0E4A1A600022102109
:103710000A2005F083F90200084B1A60074B1B686A
:10372000002B06D0054B1B68094A11001800FEF754
:10373000FBFDFEF7B1FDC046BD4680BD5CABFF1F83
:103740002CABFF1F40ABFF1F54ABFF1F58ABFF1F3D
:1037500058A0000080B58AB000AFF860B9607A6008
:103760003B6014217B18022252421A607B18FA68CF
:103770005A607B18BA689A607B187A68DA60074BDF
:1037800018683A687918002305F09BFA03007B62F9
:103790007B6A1800BD460AB080BDC0465CABFF1F07
:1037A00080B582B000AF7860084B1B68084A1340B0
:1037B00019007B689A04C0231B031A40034B0A4379
:1037C0001A60C046BD4602B080BDC04600700440CD
:1037D000FFFFF3FF80B582B000AF174B1B7BDBB25E
:1037E0001A000123134002D0012B0ED01CE0134B12
:1037F0001B68002B05D1124B124A1348FD2100F023
:10380000C3FB0E4B1B687B6011E0104B1B68002B49
:1038100006D10F4B0B4A812149000B4800F0B4FB45
:103820000A4B1B687B6002E000237B60C0467B681C
:103830001800BD4602B080BD0040064068ABFF1FC7
:1038400060A00000B0A000006CA000006CABFF1FE7
:103850007CA0000080B582B000AFFFF7BBFF030083
:103860007B607B68002B01D17B684CE0284B1B7888
:10387000DBB2DB08DAB2FB1C07210A401A70FB1C22
:103880001B787A68DA4013007B60214B5B78DBB2EF
:103890001B09DAB2BB1C03210A401A701C4B1B7BAC
:1038A000DAB27B1C01210A401A70BB1C1B78002B6A
:1038B00027D07B1C1B78002B23D1FB1C1B78072BEC
:1038C00014D01BDC052B02DC002B03DA16E0062BE0
:1038D00004D013E07B685B097B6013E07B681421F4
:1038E000180001F0F1FF03007B600BE07B680C2106
:1038F000180001F0E9FF03007B6003E000237B6018
:1039000000E0C0467B681800BD4602B080BDC046DE
:103910000040064080B500AF0B4B9B79DBB21A002C
:103920000123134002D1094B1B6809E0084B1A68B8
:10393000054B1B7ADBB25B0807210B40DA40130012
:103940001800BD4680BDC04600400640B880FF1F3D
:10395000BC80FF1F80B500AF074B9B79DBB21A001C
:103960001023134003D1FFF775FF030001E0034B61
:103970001B681800BD4680BD00400640B880FF1F90
:1039800080B584B000AF78607B680E4A934204D85B
:103990000F23FB1800221A700CE07B680A4A93423E
:1039A00004D80F23FB1801221A7003E00F23FB1821
:1039B00002221A700F23FB181B781800BD4604B0B2
:1039C00080BDC0469798000000127A0080B582B092
:1039D00000AF134B1B689B0C03221340032B13D027
:1039E00016D8002B01D0022B12D10E4B1B68002BD6
:1039F00006D10D4B0D4A8221FF310D4800F0C4FA6B
:103A0000084B1B687B6006E0FA239B007B6002E0AA
:103A100000237B60C0467B681800BD4602B080BDB5
:103A2000007004406CABFF1F7CA00000C8A0000029
:103A30006CA0000080B584B000AF0200FB1D1A70BE
:103A4000FB1D1B78082B51D89A002C4BD3181B68F0
:103A50009F4600F077F82A4A2A4BD3581B0F0F22B3
:103A600013400133190001F02FFF0300FB6040E019
:103A700000F068F8224A234BD3581B0F0F22134043
:103A80000133190001F020FF0300FB601C4A1D4BAD
:103A9000D3581B0C0722134001331900F86801F0BA
:103AA00013FF0300FB6024E0FFF790FF0300FB60BF
:103AB0001FE000F0B3F80300FB601AE000F072F8BA
:103AC0000300FB6015E0FA239B00FB6011E00E4B46
:103AD0001B68002B06D10D4B0D4AE82149000D480B
:103AE00000F052FA084B1B68FB6002E00023FB6009
:103AF000C046FB681800BD4604B080BD8CA0000025
:103B0000007004404410000068ABFF1F60A000007C
:103B1000E0A000006CA0000080B582B000AF78602B
:103B200006497B685B68064A8B507B68DB78180027
:103B3000FFF736FEC046BD4602B080BD00700440AF
:103B40004410000080B582B000AF154B9B79DBB20A
:103B50009B08032213403B603B68022B13D03B6859
:103B6000022B15D83B68002B03D03B68012B05D0F6
:103B70000EE000F017F803007B600CE0FFF7CAFED0
:103B800003007B6007E0FFF725FE03007B6002E097
:103B900000237B60C0467B681800BD4602B080BD34
:103BA0000040064080B582B000AF1A4B5B78DBB2B4
:103BB0001A000223134001D0002326E0FFF7CAFEBB
:103BC00003007B607B68002B01D17B681DE0114BFB
:103BD000DB78DBB25B09DAB2FB1C03210A401A7006
:103BE0000C4BDB78DBB2DB09DAB2BB1C01210A40EB
:103BF0001A70FB1C1978BB1C1A78074B49008A18ED
:103C00005200D35A1A007B6853431800BD4602B0D5
:103C100080BDC04600400640F0A0000080B500AF67
:103C2000074B1B78DBB21A000223134001D100239B
:103C300002E0FFF76FFE03001800BD4680BDC046DE
:103C40000040064080B584B000AF0200FB1D1A7032
:103C50001A4B1B7BDBB21A0001231A40FB1D1B7899
:103C60009A4204D00F23FB1801221A7003E00F239D
:103C7000FB1800221A70114B1B7BDBB2012293430D
:103C8000DAB2FB1D1B7801210B40DBB20B49134359
:103C9000DBB20B730F23FB181B78002B09D0084BEA
:103CA000BB6001E0C046C046BB685A1EBA60002B2C
:103CB000F8D100231800BD4604B080BD0040064086
:103CC000DC05000090B585B000AF040008001100CD
:103CD000FB1D221C1A70BB1D021C1A707B1D0A1CC6
:103CE0001A70404B9B79DBB29B0803221340FB60A8
:103CF0003C4B9B79DAB20B203B1801210A401A7029
:103D0000384B1B7ADBB25B08DAB20A243B19072175
:103D10000A401A707A1D3B1912781B789A422ED0ED
:103D20003B181B78012B19D1FB68012B06D02D4BBA
:103D30001B78DBB21A00022313400FD0294B5B78AB
:103D4000DBB2284A01218B43DBB25370C046254BBE
:103D50009B79DBB21A0001231340F8D1214B1B7A67
:103D6000DBB22F229343DAB27B1D1B78DB18DBB268
:103D70000E210B40DBB21B491343DBB20B72194B14
:103D80005B78DBB201229343DAB2BB1D1B780121C1
:103D90000B40DBB213491343DBB24B70114B1B7862
:103DA000DBB203229343DAB20E49FB1D1B781343A7
:103DB000DBB20B70FB68012B04D0FB1D1B780222C9
:103DC00013400AD0C046074B9B79DBB21A0001238F
:103DD0001A40BB1D1B789A42F5D100231800BD463E
:103DE00005B090BD00400640B0B584B000AF78602B
:103DF0007B681B680F257C191800FFF7C1FD0300C5
:103E00002370124B5B78DBB23C229343DAB27B190E
:103E10001B781B01DBB230210B40DBB21343DAB25B
:103E20007B681B7909491343DBB24B707B681B79B4
:103E3000002B07D0C046054B9B79DBB21A0002234A
:103E40001340F8D0C046BD4604B0B0BD00400640A7
:103E500090B585B000AF0400080011003B60FB1D69
:103E6000221C1A70BB1D021C1A707B1D0A1C1A70C2
:103E70000F217B1800221A70424A0E23FB18D278B9
:103E80001A70404B9B79DBB21B0901221340012BB6
:103E90000AD17B1801221A703A4BDB78DBB2394A1F
:103EA00020214B40DBB2D370364B1B78DBB20322B0
:103EB0001340DAB2FB1D1B78DB00DBB238210B406C
:103EC000DBB230491343DBB20B702E4B1B7BDBB2F2
:103ED0001A00012313400ED12A4B5B78DBB21A0083
:103EE0000423134007D0C046264B9B79DBB21A004F
:103EF00002231340F8D0C046224B9B79DBB21A0054
:103F000010231340F8D10F23FB181B78002B04D08B
:103F10001C4A0E23FB181B78D3700E243B191B7808
:103F20001F221340D9B2BB1D1B78DB01DAB27B1D07
:103F30001B785B01DBB260200340DBB21343DAB2D3
:103F40003B190A431A700F4A3B191B78D370C046BD
:103F50000C4BDB78DBB20E22BA1812789A42F7D1FA
:103F6000C046084B9B79DBB29B0803221340F8D173
:103F70003B68002B01D03B68984700231800BD46E2
:103F800005B090BD0040064090B587B002AFF86024
:103F9000B9607A603B60BC68FA68396803487B683E
:103FA0000093230002F00CFB00BEFDE700A100001F
:103FB00080B584B000AFF860B9607A607B68002B90
:103FC00005D1144B144A15484B21FFF7DDFF7B68E0
:103FD0001B78002B0AD1FB685B690121BA6891400C
:103FE0000A00D2431A40FB685A610FE07B685A7896
:103FF000B968FB68180005F0B4F9FB685A6901213B
:10400000BB6899400B001A43FB685A61C046BD4625
:1040100004B080BD70A1000078A1000064A1000080
:1040200080B584B000AF78607B681B0C084A94466A
:104030006344FB60FB6819687B681B041B0C01224E
:104040009A40FB680A431A60C046BD4604B080BD72
:104050000070044080B584B000AF78607B681B0CB2
:10406000094A94466344FB60FB681A687B681B043A
:104070001B0C012199400B00D943FB680A401A60D0
:10408000C046BD4604B080BD0070044080B584B019
:1040900000AF78600023FB6009E00E4BFA689200E5
:1040A000D3587A689A4206D0FB680133FB60FB68FC
:1040B000012BF2D900E0C046FB68012B05D9064B65
:1040C000064A0748B521FFF75FFFFB681800BD46A9
:1040D00004B080BD08A2000018A2000064A2000085
:1040E0003CA2000080B582B000AF786039607B6888
:1040F000DB78DBB21A001023134006D17B689B7873
:10410000DBB21A002023134006D00A4B1B68396823
:104110007A681000984705E0074B1B6839687A6891
:1041200010009847BFF34F8FC046C046BD4602B04F
:1041300080BDC04678ABFF1F7CABFF1F80B586B04B
:1041400000AFF860B9607A60BB68002B02D07B6872
:10415000002B06D1414B424AED2149004148FFF76F
:1041600013FFFB681800FFF791FF02003E4B92001F
:10417000D3581800FFF754FFFB6800221A70FB6841
:1041800000225A70FB6800229A70FB68FF22DA70E6
:10419000FB6800225A71FB6850229A71FB6800226A
:1041A000DA71FB689B78DBB27F221340DAB2FB68DE
:1041B0009A702E4AFB681100180005F00DF9BB68D3
:1041C00059687A68FB68180000F06CF817203B18F3
:1041D000FA6892791A703B183A1812787F210A40CF
:1041E0001A70BB685B78DB01D9B23B183A181278B9
:1041F0000A431A703B183A1812780F218A431A7032
:10420000BB681B7A0F221340D9B23B183A181278B8
:104210000A431A70FB683A1812789A71FB681B7B84
:10422000DAB216203B1804218A431A70BB689B78C7
:104230009B00DBB204221340DAB23B181B78134315
:10424000DAB2FB681A73BB681B78DB01DAB2FB6871
:104250009A70C046BD4606B080BDC04648A2000068
:1042600074A200003CA2000010A200001250000046
:1042700080B582B000AF78607B680021180005F03F
:104280008AF87B681800FFF701FF0200044B9200D8
:10429000D3581800FFF7DEFEC046BD4602B080BD11
:1042A00010A2000080B58CB000AFF860B9607A60F1
:1042B00001235B42FB620023BB6200237B6223235A
:1042C000FB1800221A704AE02323FB181B780122F6
:1042D0009A401300FB612223FB1800221A7031E080
:1042E0002223FB181A782A4B5200D35A1A00FB6972
:1042F00053431900786801F0E7FA0300BB61BA681C
:10430000BB699A4203D9BA68BB69D31A02E0BA6999
:10431000BB68D31A7B617A69FB6A9A420CD2232369
:10432000FB181B78BB622223FB181B787B627B691E
:10433000FB627B69002B0BD02222BB18BA181278C3
:1043400001321A702223FB181B783F2BC8D900E0DA
:10435000C0462322BB18BA18127801321A702323E0
:10436000FB181B78022B02D8FB6A002BACD1BB6A6E
:10437000DBB29B01DAB27B6ADBB23F210B40DBB2DE
:104380001343DAB2FB685A70C046BD460CB080BD1C
:1043900088A1000080B584B000AF786008001100EB
:1043A000FB1C021C1A70BB1C0A1C1A700023FB6049
:1043B0007B68180005F09BF80300BB60BB682022F7
:1043C000134002D0134BFB601EE07B689B78DBB28E
:1043D00030221343DAB27B689A70C0467B681B7B3D
:1043E000DBB21A0001231340F8D0FB1C1B78DB184A
:1043F000DAB2BB1C1B78012B01D1012300E00023A2
:104400001343DAB27B681A71FB681800BD4604B02A
:1044100080BDC0464C04000080B586B000AFF86097
:10442000B9607A603B6000237B611323FB18002294
:104430001A70C046FB68DB78DBB25BB2002BF9DA9E
:10444000FB680222DA70FB689B78DBB21022134310
:10445000DAB2FB689A7030E0BB685A1CBA601A780E
:10446000FB681A71C046FB68DB78DBB21A000223D6
:104470001340F8D013217B18FA68D2781A70FB68C1
:104480000222DA707B181B781022134004D0FB68DC
:104490001022DA70194B7B611323FB181B78012261
:1044A000134007D07B68002B04D0FB680122DA7030
:1044B000134B7B617B69002B05D17B685A1E7A60A8
:1044C000002BC9D100E0C0467B69002B03D13B68BB
:1044D0000422134003D07B69094A934208D1FB6848
:1044E0000222DA70FB68180004F0CFFF03007B6142
:1044F0007B691800BD4606B080BDC0464F04000071
:104500004E04000080B500AF044B1B68044A19003C
:104510001000FFF7E7FDC046BD4680BD70ABFF1F32
:104520000060064080B500AF044B5B68044A190088
:104530001000FFF7D7FDC046BD4680BD70ABFF1F22
:104540000070064080B582B000AF0200FB1D1A70FB
:10455000FB1D1B781A001F231A40044B01219140B8
:104560000A001A60C046BD4602B080BD00E100E00E
:1045700080B584B000AF78607B681B0C084A944615
:104580006344FB60FB6819687B681B041B0C0122F9
:104590009A40FB680A431A60C046BD4604B080BD1D
:1045A0000070044080B584B000AF78600023FB60E9
:1045B00006E00D4A7B68934206D0FB680133FB603E
:1045C000FB68002BF5D000E0C046FB68002B05D04F
:1045D000064B074A07489421FFF7D6FCFB681800F2
:1045E000BD4604B080BDC0460040054084A2000026
:1045F00014A30000ACA2000080B584B000AF7860C6
:1046000039603B68002B05D1144B154A15489B2196
:10461000FFF7BAFC3B685B8C9AB23B681B8C9BB281
:104620009A420CD93B681B8C9BB21A003B68DB6931
:10463000D3183A68528C92B29B1AFB6008E03B6830
:104640001B8C9BB21A003B685B8C9BB2D31AFB603D
:10465000FB681800BD4604B080BDC046BCA2000087
:1046600028A30000ACA2000080B584B000AF786041
:1046700039603B68002B05D1104B114A1148AD2120
:10468000FFF782FC3A687B6811001800FFF7B4FF5F
:1046900002003B68DB69013B9A4204D10F23FB18FF
:1046A00001221A7003E00F23FB1800221A700F2357
:1046B000FB181B781800BD4604B080BDBCA20000EA
:1046C00050A30000ACA2000080B586B000AFF86037
:1046D000B9607A60BB68002B05D10E4B0E4A0F48BB
:1046E000BE21FFF751FC00237B6109E0BA687B69BA
:1046F000D3181B781A00FB68DA607B6901337B6191
:104700007A697B689A42F1D3C046C046BD4606B07E
:1047100080BDC046C4A2000074A30000ACA200008B
:1047200080B586B000AFF860B9607A60BB68002BD6
:1047300005D10E4B0E4A0F48CC21FFF725FC002374
:104740007B6109E0FB68D968BA687B69D318CAB293
:104750001A707B6901337B617A697B689A42F1D375
:10476000C046C046BD4606B080BDC046C4A20000DB
:104770008CA30000ACA20000B0B58CB000AFF86014
:10478000B9607A60BB68002B05D1954B954A964875
:10479000EB21FFF7F9FBBB681B68002B05D1934B9E
:1047A000904A9148EC21FFF7EFFBBB681B68BB61A7
:1047B00000237B622A23FB1800221A8004233B6219
:1047C0005AE0BB681B683A6A53431900786801F0E5
:1047D0007BF803001A0028217B181A800A00BB18F6
:1047E0001B88002B02D1BB1801221A8028257B19B7
:1047F0001B883A6A53431900786801F065F8030092
:104800003B61BB681B683A69D31AFB61BB681C68D3
:104810007B191B8801331A003B6A534319007868DF
:1048200001F052F80300E31AFA699A4213D9BB68FF
:104830001C687B191B8801331A003B6A534319001B
:10484000786801F041F80300E31AFB617B191A88CC
:104850007B1901321A80FA69BB699A4209D8FB694F
:10486000BB613B6A7B622A23FB182822BA18128894
:104870001A803B6A01333B623B6A202BA1D9BB689B
:104880001B686421180001F01FF803001A001300D0
:104890005B009B18BA699A4201D9554B9BE0FB68B3
:1048A0001800FFF77FFE03007B61524B1800FFF7F3
:1048B0005FFEFB689B68504A1A40FB689A60FB6881
:1048C0001B68FB627B6A032B07D97B6A072B04D822
:1048D000FB6A802292021343FB62FB6A474A134041
:1048E000FB627B6A013B1A06F8235B051340FA6AF8
:1048F0001343FB62FB6A5B0B5B03FB622A23FB181F
:104900001B88DB04DA0CFB6A1A43FB681A60FB683D
:104910001B683B4A1A40FB681A60FB689B681322BD
:104920009343FB62BB681B791A00FB6A1343FB626B
:10493000BB681B79002B03D0FB6A10221343FB6278
:10494000FB68FA6A9A60FB681B682E4A1340FB6298
:10495000BB68DB795A0380239B011A40FB6A1A4328
:10496000FB681A60284BFB62FB6A80221206134325
:10497000FB62FB6AC02212021343FB62BB689B7995
:10498000002B05D0FB6A802292051343FB6203E0F3
:10499000FB6A1B4A1340FB62FB685A68FB6A1A43B6
:1049A000FB685A60FB689B68FB62BB681B7A002B44
:1049B00004D0FB6A802212031343FB62BB685B7A5C
:1049C000002B04D0FB6A8022D2021343FB62FB68F7
:1049D000FA6A9A6000231800BD460CB0B0BDC0460C
:1049E00070A10000A4A30000ACA20000CCA20000B3
:1049F0002105000014003810FFFFF3FFFFFFFFE068
:104A0000FFFFFFDFFFDFFFFF00001F4080B582B028
:104A100000AF78607B68002B06D1104B104AD02184
:104A2000FF311048FFF7B0FA7B68E12252021A60AA
:104A30007B6800221A717B6800225A717B68002211
:104A40009A717B680022DA717B6800221A727B6897
:104A500000225A72C046BD4602B080BD70A100005F
:104A6000B0A30000ACA2000080B584B000AF7860B5
:104A700039607B685B68BB60BB685B005B08BB60E0
:104A80003B68DB0FDB07BA681343BB60BB68144AA3
:104A90001340BB603B68134A1340BA681343BB60C2
:104AA000BB68114A1340BB603A68C0231B02134025
:104AB000BA681343BB607B68BA685A607B681800A9
:104AC00004F001FE02003B68134002D0074BFB607C
:104AD00001E00023FB60FB681800BD4604B080BD08
:104AE000FFFFE0BF00001F40FF3FFFFF1A0500006F
:104AF00080B586B000AFF860B9607A603B60BB6893
:104B0000002B05D1174B184A18491948FFF73CFAF2
:104B1000BB6830220021180004F043FEBB682D2240
:104B200002219954BB682C2200219954BB687A68F1
:104B30005A62BB683A689A62FB681800FFF732FD58
:104B400003007B610B4B7A699200B968D1500A4B24
:104B50000A4A1A600C23180004F063FDC046BD46E3
:104B600006B080BDBCA20000C8A30000DF020000A8
:104B7000ACA2000080ABFF1F84ABFF1FFD4E000006
:104B800080B584B000AFF860B9607A603B60BB6804
:104B9000002B05D1134B144A14491548FFF7F4F9BB
:104BA0007B68002B06D1134B0F4AC72189001048A0
:104BB000FFF7EAF9BB687A689A61BB683A68DA611C
:104BC000BB6800221A84BB6800225A8482231A051B
:104BD000FB681100180004F03AFDC046BD4604B061
:104BE00080BDC046BCA20000E4A300001B0300007F
:104BF000ACA20000E4A2000080B586B000AFF8606F
:104C0000B9607A60BB68002B05D1254B254A26493F
:104C10002648FFF7B9F97B68002B05D1244B214AC0
:104C200024492248FFF7B0F97B681B68002B05D1A7
:104C3000214B1C4A21491D48FFF7A6F97B685B6898
:104C4000002B06D11E4B174ACF2189001748FFF7CA
:104C50009BF9BB682C229B5CDBB2012B02D1194B68
:104C60007B6118E07B681A68BB681A607B685A68C9
:104C7000BB685A607B685A68BB689A60BB682C2224
:104C80000121995480231A04FB681100180004F0D4
:104C9000DEFC00237B617B691800BD4606B080BD49
:104CA000BCA2000004A4000039030000ACA2000074
:104CB000F0A200003A030000F8A200003B0300004D
:104CC00004A300001405000090B58BB000AFF8609D
:104CD000B9607A603B60BB68002B05D1664B674AC0
:104CE00067496848FFF750F97B68002B06D1664B8F
:104CF000624ADD2189006348FFF746F97B681B683B
:104D0000002B05D1614B5D4A61495E48FFF73CF9D4
:104D10007B685B68002B05D15E4B584A5E49594859
:104D2000FFF732F900237B61BB682D229B5CDBB26D
:104D3000032B02D1594B3B6299E07B685B68FB61B6
:104D40000023BB61BB689B69002B00D170E080230E
:104D50009A03FB681100180004F096FCBA68FB681F
:104D600011001800FFF748FC03007B617B69002BF2
:104D700034D0FA697B69934200D913007B61FA69E8
:104D80007B69D31AFB6100237B6223E0BB689B69CC
:104D9000BA68528C92B29A187B681968BB69581C21
:104DA000B861CB1812781A70BB685B8C9BB25A1C26
:104DB000BB68DB699A4203D1BB6800225A8406E0D3
:104DC000BB685B8C9BB201339AB2BB685A847B6A26
:104DD00001337B627A6A7B699A42D7D3FB69002BE5
:104DE0000FD07B681A68BB69D218BB68DA60BB68F1
:104DF000FA691A61BB68FA695A61BB682D220321FE
:104E0000995480239A03FB681100180004F01FFCDA
:104E1000FB69002B23D1BB685B6A002B1FD0BB68EA
:104E20005C6ABB689B6A1E4AB968F868A04716E0CE
:104E30007B681A68BB69D218BB68DA60BB68FA691C
:104E40001A61BB68FA695A61BB682D220321995423
:104E500082231A05FB681100180004F0F8FB3B6878
:104E6000002B02D03B68BA691A6000233B623B6AA0
:104E70001800BD460BB090BDBCA2000024A40000E9
:104E800073030000ACA20000F0A20000F8A2000032
:104E90007503000004A30000760300001505000060
:104EA0001705000080B582B000AF786039603B68BC
:104EB000002B05D10D4B0E4A0E490F48FFF764F841
:104EC0003B689B69002B06D182231A057B68110081
:104ED000180004F0D9FB3B6800221A613B682D22C0
:104EE00002219954C046BD4602B080BDBCA200005C
:104EF00048A40000E3030000ACA2000090B585B018
:104F000000AF786039603B68002B05D1994B9A4A15
:104F10009A499B48FFF738F87B685A6880231B033F
:104F2000134014D07B685B68964A134080221203BA
:104F30001A437B685A603B685B6A002B07D03B686A
:104F40005C6A3B689B6A904A39687868A0477B68CE
:104F50005A6880239B03134000D1B0E07B689A68B5
:104F600080239B03134000D1A9E00F23FB180122EB
:104F70001A7036E00E243B1901221A703B68D9687A
:104F80003B191A787B681800FFF7CAFB3B68DA68A0
:104F900020003B181B78D2183B68DA603B681A691E
:104FA0003B181B78D21A3B681A610F22BB18B9183C
:104FB0003A18097812788A1A1A703B681B69002B14
:104FC0000FD13B682D22022199543B685B6A002B6C
:104FD00007D03B685C6A3B689B6A6C4A39687868B2
:104FE000A0470F23FB181B78002B03D03B681B69DD
:104FF000002BBFD13B689B69002B55D04BE03A6832
:105000007B6811001800FFF72FFB031E0BD03B68D5
:105010005B6A002B07D03B685C6A3B689B6A5C4A12
:1050200039687868A0473A687B6811001800FFF774
:105030001BFB031E12D03B685B8C9BB25A1C3B6867
:10504000DB699A4203D13B6800225A8406E03B6840
:105050005B8C9BB201339AB23B685A847B68D968F7
:105060003B689B693A68128C92B29B18CAB21A705C
:105070003B681B8C9BB25A1C3B68DB699A4203D18C
:105080003B6800221A8406E03B681B8C9BB201330C
:105090009AB23B681A840F22BB181B78BA18591EA3
:1050A0001170002BABD10AE03B681B69002B06D1C5
:1050B00082231A057B681100180004F0E5FA7B686A
:1050C0005A6880231B04134050D07B689A68802361
:1050D0001B0413404AD00F23FB1801221A703CE036
:1050E0000E243B1901221A703B6819683B191A7883
:1050F0007B681800FFF7E8FA3B681A6820003B1845
:105100001B78D2183B681A603B685A683B181B78BA
:10511000D21A3B685A600F22BB18B9183A1809789E
:1051200012788A1A1A703B685B68002B15D13B68AD
:105130002C22002199547B689B68164A1A407B6890
:105140009A603B685B6A002B07D03B685C6A3B68EF
:105150009B6A114A39687868A0470F23FB181B78AF
:10516000002B03D03B685B68002BB9D1C046BD461D
:1051700005B090BDBCA2000064A4000001040000C2
:10518000ACA200000000E03F1D0500001705000074
:105190001C050000FFFF7FFF1605000080B500AF73
:1051A000044B1A68044B1B68044819009047C0461A
:1051B000BD4680BD84ABFF1F80ABFF1F0040054094
:1051C00080B582B000AF78600A00FB1C1A70FB1C2F
:1051D0001B78002B07D07B689B68802212031A4340
:1051E0007B689A6005E07B689B68044A1A407B688C
:1051F0009A60C046BD4602B080BDC046FFFFF7FFC3
:1052000080B582B000AF78600A00FB1C1A70FB1CEE
:105210001B78002B07D07B689B688022D2021A4340
:105220007B689A6005E07B689B68044A1A407B684B
:105230009A60C046BD4602B080BDC046FFFFFBFF7E
:1052400080B588B000AFF860B9607A603B603B68B9
:10525000BB6100237B610023FB617B68274A93428B
:105260000AD1BB69DB691422BA1801211800FDF7C5
:1052700045F80300FB6132E07B68214A93420AD182
:10528000BB691B6A1422BA1801211800FDF736F811
:105290000300FB6123E07B681A4A93420AD1BB6991
:1052A000DB691422BA1802211800FDF727F8030061
:1052B000FB6114E07B68144A934210D180231A03E7
:1052C000FB6811001800FFF7CFFBBB69DB691422F4
:1052D000BA1804211800FDF711F80300FB61FB69FF
:1052E000002B06D07B69002B03D0084B802252058F
:1052F0001A60C046BD4608B080BDC0461705000014
:10530000160500001C0500001D05000004ED00E06E
:1053100090B589B000AFF860B9607A60FB68002B87
:1053200001D10423A7E0BB68002B01D10423A2E034
:105330007B68002B01D104239DE07B681B68002B58
:1053400001D1042397E07B685B68002B01D1042323
:1053500091E07B689B68002B01D104238BE07B6884
:105360001A68FB681A60FB68BA685A62012003F089
:10537000C8FB0200FB689A61FB689B69002B01D1A6
:10538000012378E0012003F0BCFB0200FB685A61B6
:10539000FB685B69002B06D1FB689B69180003F072
:1053A000E5FD012367E003F08AF80200FB681A625A
:1053B000FB681B6A002B0BD1FB685B69180003F0CC
:1053C000D5FDFB689B69180003F0D0FD012352E076
:1053D00003F075F80200FB68DA61FB68DB69002BFB
:1053E00010D1FB681B6A180003F0C3F9FB685B6906
:1053F000180003F0BBFDFB689B69180003F0B6FDC5
:10540000012338E014243B191800FFF7FFFA7B68EA
:105410009A6821007B181A607B681A7B7B181A71C6
:105420007B685A7B7B18DA71FB6818687B685A685E
:105430007B181900FFF7A0F9FB681868FB68596A28
:10544000FB680F4AFFF754FBFB681868FB68596A52
:105450007B681A697B685B69FFF792FBFB681B68D6
:1054600001211800FFF7ACFEFB681B680121180042
:10547000FFF7C6FE00231800BD4609B090BDC04628
:105480004152000080B58AB002AFF860B9607A601E
:105490003B6000233B610123FB610023BB61FB6890
:1054A0001B68002B01D1012380E07B68002B07D112
:1054B0003B68002B02D03A693B681A60002375E014
:1054C000BB68002B01D1042370E0FB6858690123FD
:1054D0005A420023002103F065FC031E01D1012381
:1054E00064E0FB68BA68DA60FB687A681A61FB6896
:1054F0001868FB68596AFB680C331A001023FB1804
:10550000FFF7E2FBFB68D86901235B4200930023AD
:105510000122072102F0EBFF03007B617B6904227B
:10552000134012D0FB681A68FB685B6A1900100010
:10553000FFF7B8FCFB68DB690121180003F07BF87A
:105540001C4BFB610023BB611EE07B690222134000
:1055500012D0FB681A68FB685B6A19001000FFF73D
:10556000A1FCFB68DB690121180003F064F8124B11
:10557000FB610023BB6107E07B690122134003D07C
:105580000023FB617B68BB613B68002B02D03B685A
:10559000BA691A60FB68586900230022002103F0F1
:1055A000CCFA031E01D10123FB61FB691800BD4643
:1055B00008B080BD1D0500001C05000080B500AFCF
:1055C0000349044A8023DB028B50C046BD4680BDA0
:1055D000007004404410000080B582B000AF7860D5
:1055E000034B7A681A60C046BD4602B080BDC04613
:1055F00068ABFF1F80B582B000AF074B7B6001E056
:10560000C046C0467B685A1E7A60002BF8D1C0465F
:10561000C046BD4602B080BD3075000080B582B086
:1056200000AF3B00084A1A603B0000221A713B00A1
:105630001800FEF7D9FB044B1800FFF7CDFFC0465A
:10564000BD4602B080BDC0460048E80180B584B0C8
:1056500000AF2D4A2D4BD358BB60BB681B0BDAB291
:10566000FB1D0F210A401A70FB1D1B78002B0FD168
:10567000274A96235B00D358FB60254A96235B009C
:10568000D3582349E022D2001A4396235B00CA5024
:105690001F4B1B68BB60BB681E4A1340BB601C4BA2
:1056A000BA68802149000A431A60194A92235B00B4
:1056B000D3581749802292051A4392235B00CA509F
:1056C000C046134B1A6880235B041340F9D0FB1DBE
:1056D0001B78002B13D10C4A0F4BD3580A49802258
:1056E000520513430C4A8B500C4B9A680B4B0C2100
:1056F0000A439A60064996235B00FA68CA50C0467E
:10570000BD4604B080BDC0460070044024100000B7
:1057100000900540FFF0FFFF38100000C0C20540B8
:1057200080B584B002AF3B00180008231A000021A6
:1057300004F037F83B00802252025A60FFF786FFE0
:10574000FFF73CFFFFF76AFF0B4B0093012300229A
:105750000521002003F0DEFD002200210220FEF7DB
:10576000B1FA3B001800FEF7D7F9044B044A1A605F
:10577000C046BD4602B080BDF55500008080FF1FC9
:10578000005A620280B584B000AF78607B681B0C61
:10579000084A94466344FB60FB6819687B681B04F5
:1057A0001B0C01229A40FB680A431A60C046BD46A2
:1057B00004B080BD0070044080B584B000AFF860D4
:1057C000B960FB1D1A70FB68BA689200D358094A89
:1057D0001A40FB1D1B781902E023DB000B401A4323
:1057E0001100FB68BA689200D150C046BD4604B0B3
:1057F00080BDC046FFF8FFFF80B500AF2C4B1800FE
:10580000FFF7C0FF2B4B1800FFF7BCFF2A4B180017
:10581000FFF7B8FF294B012205211800FFF7CCFF45
:10582000264B012204211800FFF7C6FF234B01225B
:1058300001211800FFF7C0FF204B012202211800B0
:10584000FFF7BAFF1D4B012203211800FFF7B4FF39
:105850001A4B032210211800FFF7AEFF174B03224B
:1058600013211800FFF7A8FF144B01221121180083
:10587000FFF7A2FF114B012212211800FFF79CFF36
:105880000E4B042206211800FFF796FF0B4B042253
:1058900007211800FFF790FF094A0A4BD35808491F
:1058A00004229343074A8B50C046BD4680BDC04684
:1058B0000B003810060034101400381000B00440FB
:1058C0000070044010100000002243088B4274D383
:1058D00003098B425FD3030A8B4244D3030B8B42F1
:1058E00028D3030C8B420DD3FF22090212BA030CFA
:1058F0008B4202D31212090265D0030B8B4219D3DB
:1059000000E0090AC30B8B4201D3CB03C01A5241FA
:10591000830B8B4201D38B03C01A5241430B8B4242
:1059200001D34B03C01A5241030B8B4201D30B032B
:10593000C01A5241C30A8B4201D3CB02C01A524152
:10594000830A8B4201D38B02C01A5241430A8B4215
:1059500001D34B02C01A5241030A8B4201D30B02FE
:10596000C01A5241CDD2C3098B4201D3CB01C01A18
:10597000524183098B4201D38B01C01A5241430922
:105980008B4201D34B01C01A524103098B4201D310
:105990000B01C01A5241C3088B4201D3CB00C01A7D
:1059A000524183088B4201D38B00C01A52414308F5
:1059B0008B4201D34B00C01A5241411A00D201461A
:1059C000524110467047FFE701B5002000F0F0F8A3
:1059D00002BDC0460029F7D076E7704703460B4367
:1059E0007FD4002243088B4274D303098B425FD3D8
:1059F000030A8B4244D3030B8B4228D3030C8B4204
:105A00000DD3FF22090212BA030C8B4202D31212E9
:105A1000090265D0030B8B4219D300E0090AC30BBE
:105A20008B4201D3CB03C01A5241830B8B4201D36B
:105A30008B03C01A5241430B8B4201D34B03C01A54
:105A40005241030B8B4201D30B03C01A5241C30ACC
:105A50008B4201D3CB02C01A5241830A8B4201D33D
:105A60008B02C01A5241430A8B4201D34B02C01A27
:105A70005241030A8B4201D30B02C01A5241CDD2CC
:105A8000C3098B4201D3CB01C01A524183098B4217
:105A900001D38B01C01A524143098B4201D34B0100
:105AA000C01A524103098B4201D30B01C01A524163
:105AB000C3088B4201D3CB00C01A524183088B42EA
:105AC00001D38B00C01A524143088B4201D34B00D3
:105AD000C01A5241411A00D2014652411046704745
